:020000040800F2
:1000000070040020D5000008010100080301000869
:1000100000000000000000000000000000000000E0
:1000200000000000000000000000000005010008C2
:10003000000000000000000007010008211900086E
:100040000B0100080B0100080B0100080B01000860
:100050000B0100080B0100080B0100080B01000850
:100060000B0100080B0100080B0100080B01000840
:100070000B0100080B0100080B0100080B01000830
:100080000B01000800000000000000000B01000848
:10009000000000000B0100080B0100080B01000824
:1000A000000000000B0100080B0100080B01000814
:1000B0000B010008000000000B0100080000000018
:1000C0000348854600F09CFB004800474523000894
:1000D000700400200D4880F308880D480D49016028
:1000E0000D480168090E0D4A914205D10C48094995
:1000F00001600C480C4901600C4880470C480047DF
:10010000FEE7FEE7FEE7FEE7FEE7FEE770040020FD
:100110006020024001000000040000001F000000F9
:1001200018100240000001400000000055190008AE
:10013000C100000830B50B460146002020220124F2
:1001400009E00D46D5409D4205D31D469540491B0B
:100150002546954040191546521E002DF1DC30BD54
:1001600070B500242546002801DA01244042002908
:1001700001DA01254942FFF7DDFFAC4200D04042E1
:10018000002C00D0494270BD024670B54A40D30FE2
:10019000DB0740002DD04A002AD0010E140E0002C9
:1001A00012020919400A520A8418E5010446544310
:1001B000000A120A2E045043A4194219200CC54308
:1001C000AA18120C0125AD03521C521912047F39D2
:1001D000240400D0521C104301D44000491EC2B276
:1001E0000C06C0092018401C4008802A02D003E0F9
:1001F000002070BD40084000002900DA00201843AC
:1002000070BD0000F0B51FB488B00B9909980024A8
:1002100048400999C00F490049080991C0070B9946
:100220000090490049080B9109990898A64608438F
:100230001CD00B990A98084318D009980124400053
:10024000420D4800410D099824050003000B20438E
:1002500009900B980003000B20430B9050181C4989
:100260004018002201901446104605E00020014687
:100270000DB0F0BD032801DA034600E003239C46DD
:10028000C11A0AAE0AE05F0008ADED5B4F00F75BF4
:100290007D430027AA187C41491C5B1E6145F2DDA5
:1002A000410004AB5A522104120C0A43240C401C96
:1002B0000828DFDB019802900099704601910090B8
:1002C000059B049A0799069800F06BF9D0E70000A7
:1002D0000DFCFFFFF0B50C465C4085B0E40FE40771
:1002E00003944C00002664085900944649080246CD
:1002F0000296224321D062460A431ED06200570D67
:100300004A000E032303550D012402462C492405FF
:10031000781B1B0B360B4018234326436146009085
:100320001C46501AB44103D30098401C009002E0D0
:10033000921800985B41002803DA0020014605B0BE
:10034000F0BD0020012109050746864611E06446FC
:100350001D46141BB54106D36546521BB341744676
:1003600007430C43A646CD07400849082843921886
:100370005B4105460D43EAD11046184313D0604651
:10038000194650407140084306D06046101AB341E8
:1003900006D20122002306E000220123DB0702E04F
:1003A0000122D2435310009874460105381C614164
:1003B000029C039D0019694100F0E6F8BFE70000C8
:1003C000FD0300000EB505490291002100910A4687
:1003D0000B46019100F0E5F803B000BD33040000C6
:1003E000C20F410040020123400ADB05D207090E7B
:1003F000C0187F2901DA00207047962903DC962374
:10040000591AC84001E096398840002AF4D0404289
:100410007047000070B5CD0F4A0009030123090B96
:100420001B0519430B4BED070024520D9A4201DACC
:10043000002070BD074B34339A4203DC9A1A00F057
:1004400051F802E00449511888402C43F1D0404251
:1004500070BD0000FF030000CDFBFFFFC20FD207FD
:10046000400040080BD0C10D0723DB01C918400232
:100470000905400A1143C208400711437047002094
:100480000146704710B5002904DB0124E40740420F
:100490008C412146002B04DB1C460123DB07524222
:1004A000A3418B4200D1824210BD0000CB0FDB077D
:1004B000490010B5490802460A4307D00A0D07242F
:1004C0000903E401090B121B002A01DC002010BD06
:1004D000C900440F0C43C100E018D205801800F099
:1004E00012F810BD10B5202A04DB0846203AD0408F
:1004F000002110BD0B46D340D0402024A21A9140C9
:100500000843194610BD002904DA401C490001D1F6
:1005100040084000704770B40024050C05D1102439
:10052000000402D1002921D01124050E01D10002BE
:100530000834050F01D10001241D850F01D1800071
:10054000A41C002801DB4000641C002908D02025E1
:100550002E1B0D46F540A14000D001212943084340
:1005600001061B1B000ADB1D02D5002070BC704772
:10057000DB05181880180029F8DA401C4900F5D16D
:1005800070BC40084000704710B5002B08DA00240A
:10059000401C614192185B411A4301D14008400060
:1005A00010BDF0B51FB482B005460C0003D008465C
:1005B00001F03AFC02E001F037FC203002460090E6
:1005C0002146284600F02EF9049B059A04460F4662
:1005D00018431143084314D0184610431BD0009809
:1005E00040210A1A18460599FFF77CFF05460E467A
:1005F000009A0599049800F015F9084305D00120E8
:1006000004E02046394607B0F0BD0020C11705437D
:100610000E432C43374300990E986305401A790521
:10062000E40A00220C43FD0A0A3002D500200146EC
:10063000E9E70105101969410C9C0D9D00196941FC
:10064000FFF7A2FFDFE70000F0B507460846584075
:1006500087B0C00F049048000E4659004008490872
:10066000BC1A884105D2384631461E4617460B460D
:1006700002465800400810434CD0300D039040050E
:100680005900400D490D0590401A0290402872DA39
:1006900018030121000B09050843019004980092FA
:1006A000002805D001995242002088410092019013
:1006B000029840210A1A0199009800F0B3F8054603
:1006C0000C466B4607CB00F0BDF8C0197141039A88
:1006D0000E0D0023D71756401A467A40164344D0D1
:1006E000049A002A2DD0029A012A039A15DC1205D9
:1006F000C01A914101263605001C7141D20F059E9A
:10070000D2070093019202962A462346FFF749FF3B
:1007100007B0F0BD38463146FAE71605224A0F46C3
:10072000B218C01AB74101210905001C4F41001839
:100730007F41114618187941E20F10436D19644149
:1007400013E0E2076D0815436408C2071443039AD7
:1007500001261205C01A91413605001C7141CE07D1
:10076000400830434908C01851412A462346FFF744
:100770000BFFCDE7FFE7049801224000C117121AD2
:1007800000238B4104983146C417381AA141EEE783
:1007900030B40124E407634030BC55E730B4012491
:1007A000E407614030BC4FE70000E0FF70B54B004C
:1007B0005B0803430BD04B005C0D002633466542BB
:1007C000B341D417AD1AA34102DB0020014670BD2E
:1007D00012053018514170BD0EB5C217C10F5040FF
:1007E000CA0740180021054B0293019200910A4666
:1007F0000B46FFF7D6FE03B000BD00003304000037
:10080000064C0125064E05E0E36807CC2B430C3C63
:1008100098471034B442F7D3FFF756FC7827000806
:100820009827000810B5202A04DB0146203A9140A1
:10083000002010BD914020239C1A0346E340194339
:10084000904010BD10B5202A06DBCB170846203A91
:100850001041C1170B4306E00B461341D040202442
:10086000A21A91400843194610BD000010B501219D
:100870000C4800F021F9012211460A4800F090F8D6
:1008800007E00121074800F01BF8064800F07AF85D
:1008900084B20121034800F078F80128F1D0204605
:1008A00010BD000000240140002904D0826E012305
:1008B0001A43826603E0826E5208520082667047D5
:1008C000012904D1426901231A43426103E04269CC
:1008D00002231A4342617047002904D04268012371
:1008E0001A43426003E04268520852004260704777
:1008F000002904D0826808231A43826003E08268DA
:1009000008239A4382607047002904D08268042338
:100910001A43826003E0826804239A43826070472E
:1009200008B50121480400F007FF00216846C170A6
:10093000082101800121817069460920C00600F06C
:10094000B7F910216846018069460920C00600F009
:10095000AFF920216846018069460920C00600F0F1
:10096000A7F940216846018069460920C00600F0C9
:100970009FF980216846018069460920C00600F081
:1009800097F908BD0146086870470246012902D15F
:100990005069084070475069022318404008F9E741
:1009A00010B501290BD1002A04D083680124234308
:1009B00083600FE083685B085B0083600AE0002AC5
:1009C00004D0836802242343836003E08368022405
:1009D000A343836010BD000042680B4B1A40426085
:1009E0000B684A681A4343681A4342608268074B9F
:1009F0001A4082600B694A691A438B681A438368FC
:100A00001A438260704700000FBCFFFF8FF1F9FFAF
:100A100010B500210C48FFF75FFF002400E0641CC4
:100A2000642CFCD3FFF77CFF00F010F8002400E0FA
:100A3000641C642CFCD30721034800F05DF8FFF729
:100A400015FF044610BD00000024014000B587B02A
:100A50000121480200F080FE0020069005900390DE
:100A6000702002900020019001A91248FFF7B4FF06
:100A700000211048FFF748FF032189020D4800F0CC
:100A800046F800210B48FFF70FFF00210948FFF748
:100A90002FFF002201210748FFF782FF00220221D9
:100AA0000448FFF77DFF01210248FFF715FF07B05B
:100AB00000BD000000240140002905D08268FF230A
:100AC00001331A43826004E08268FF2301339A43B2
:100AD0008260704770B5044600200649C860214610
:100AE000044800F009F8052000F056F905462846AC
:100AF00070BD000000240140C26801238B409A436E
:100B0000C260C26801238B401A43C26070474268CA
:100B10000F239B029A43426042680A434260704737
:100B2000FFB583B00C46029400200190002726E018
:100B300000261CE0721C039951430846791CFFF7FC
:100B4000F9FA0546A54201D9281B00E0601B0546BD
:100B50000298A84204D90295059806700698077075
:100B60000298002802D10120019002E0761C402E5C
:100B7000E0D300BF0198002800D002E07F1C042FC2
:100B8000D6D300BF029807B0F0BD00000146002098
:100B9000002203E0194BC91A531CDAB2174B9942D1
:100BA000F8D20346134318460001002204E07D23D7
:100BB000DB00C91A531CDAB27D23DB009942F6D25E
:100BC0000346134318460001002202E06439531C17
:100BD000DAB26429FAD20346134318460001002210
:100BE00002E00A39531CDAB20A29FAD20346134347
:100BF0001846000103460B431846704710270000B3
:100C00000F480068401C0E490860084600680D49FE
:100C10000968884212D90020094908600A4800780A
:100C20000A490870084840784870074880788870FA
:100C30000548C078C8700448007908717047000002
:100C4000380000203C00002045000020400000202B
:100C500010B5FF21913110480068FFF76BFA044688
:100C6000601E0E49884201D901200CE0601E0C492B
:100C700048610321081F01F0FDF800200849886140
:100C8000072008610020002801D000BFFEE70021F6
:100C9000481E01F0EFF810BD00000020FFFFFF002C
:100CA00000E000E0002100E0491C8142FCD37047D5
:100CB000F8B50246CD782F073F0FCD781026354086
:100CC000002D01D08D782F431446002011E08506B9
:100CD0002B0E0D88012686403540002D07D0256853
:100CE0000F269E40B5433E469E4035432560451C39
:100CF000E8B20828EBDB141D0D882D1200950020AA
:100D000011E085062B0E01258540009E3540002D03
:100D100007D025680F269E40B5433E469E4035438A
:100D20002560451CE8B20828EBDBCD78282D04D1DE
:100D300055690E883543556106E0CD78482D03D1BD
:100D400015690E8835431561F8BD70B54D07EB0E7A
:100D5000082902DA0546203501E0054624352C46EF
:100D60000F269E402568B54316469E4035432560B4
:100D700070BD024690680840002801D001207047ED
:100D80000020FCE74161704701617047002A01D0F3
:100D9000016100E041617047F8B504460025002676
:100DA0000AE0FFF763FD4519002701E0781CC7B290
:100DB000642FFBDB701CC6B2A642F2DB214628463C
:100DC000FFF7B8F980B2F8BD0148024908607047E2
:100DD000CCCC00000030004001460448C068084008
:100DE000002801D0012070470020FCE700300040BF
:100DF00010B57D2000F0CAFC002801D000F0BCFC3A
:100E0000002010490861012000F0DCFC00BF6120D7
:100E100000F0BCFC0028FAD000F076F90A4800F097
:100E200033F8032000F01CF800F0D6FC064800F070
:100E30002BF8064800F01EF800F00AF8FFF7C4FF90
:100E400010BD00000030004055550000FF0F0000AD
:100E50000148024908607047AAAA0000003000401B
:100E600000B502460248426000F04EF900BD0000A5
:100E70000030004000B502460248826000F0ACFC41
:100E800000BD0000003000400149086070470000CC
:100E90000030004008B501210920400400F04CFC5E
:100EA00001210903684601804821C1706946092073
:100EB000C006FFF7FDFE0421684601804821C1708D
:100EC00069460648FFF7F4FE08216846018048217C
:100ED000C17069460148FFF7EBFE08BD000C0048F1
:100EE00010B5012109030920C006FFF742FF0028C1
:100EF00001D1012010BD04210848FFF73AFF002866
:100F000001D10220F6E708210448FFF732FF00284C
:100F100001D10320EEE70020ECE70000000C0048C0
:100F200010B54E480078401C4C49087008460078BF
:100F3000052801DB002008700121C9034848FFF79C
:100F400023FF012149034748FFF71EFF0121090341
:100F50004348FFF719FF012149034148FFF714FFF8
:100F6000012189033E48FFF70FFF3C48007803004A
:100F700000F071FF05041B32496071003A480078A7
:100F8000C006C00E39490C5C374800788021084003
:100F9000002801D06406640EE0B200F0EFFE0121EB
:100FA000C9032F48FFF7EEFE56E02F484078C006F1
:100FB000C00E2E490C5C2C48407880210840002847
:100FC00001D06406640EE0B200F0D8FE01214903AE
:100FD0002448FFF7D7FE3FE023488078C006C00EC4
:100FE00022490C5C2048807880210840002801D0EC
:100FF0006406640EE0B200F0C1FE01210903184846
:10100000FFF7C0FE28E01848C078C006C00E174998
:101010000C5C1548C07880210840002801D0640687
:10102000640EE0B200F0AAFE012149030C48FFF76C
:10103000A9FE11E00C480079012803D0FF2000F040
:101040009DFE02E0FC2000F099FE01218903044886
:10105000FFF798FE00E000BF00BF10BD4B0000206E
:10106000000400480008004840000020162700083F
:1010700008B50121C80400F05FFB0121880400F0DD
:101080005BFB0121684681701021C170490201801B
:1010900069461B48FFF70CFE01216846817010214C
:1010A000C1700F210903018069461648FFF700FE51
:1010B0000121684681701021C170FF2101806946BD
:1010C0001048FFF7F5FDFF2000F058FE0121C9038D
:1010D0000C48FFF759FE012149030948FFF754FE68
:1010E000012109030748FFF74FFE01214903054885
:1010F000FFF74AFE012189030248FFF745FE08BDBC
:10110000000800480004004800B500BF0120FFF7B8
:1011100063FE0128FAD000BD10B500F077FC00F0A6
:10112000B9FC10BD10B5FA480078002808D10B2092
:10113000F849087048708870C8700020087127E26C
:10114000F548006800287CD1F4480068030000F0EE
:1011500082FE060468BDD9E4F1FC0120ED49087067
:1011600000200871EE480078012806D10B20487055
:101170000E2088700F20C87052E0EA4800780128DD
:101180000CD1E948006810210840002806D0112041
:10119000E04948700B208870C87041E0E349487806
:1011A0000978000600140843002809DB0B20D94900
:1011B0004870DE4948780978000604140C4309E0B9
:1011C0000A20D4494870D9494878097800060014A3
:1011D00008434442D3480078012802D11120CD4968
:1011E00048702046FFF7D2FC0446D0494878097879
:1011F0000006001408436221C943884208DA20052A
:10120000000FC44988702006000F8030C87007E0C6
:101210002006000F8030BF4988702007000FC8707B
:1012200094E00120BB49087000204870C048007855
:10123000012807D10B2048700E2088700F20C8703D
:1012400043E084E0B949487909790006001408436D
:10125000002809DB0B20AF494870B4494879097967
:10126000000604140C4311E0B049487909790006DE
:1012700000140843002809DA0A20A6494870AB493F
:101280004879097900060014084344422046FFF7D4
:101290007DFC0446A54948790979000600140843F5
:1012A0006221C943884208DA2005000F99498870F5
:1012B0002006000F8030C87007E02006000F803045
:1012C000944988702007000FC8703FE001209149C1
:1012D0000870002008719549487A097A00060014C0
:1012E000084304462046FFF751FC04462005000F42
:1012F000884948702006000F803088702007000F52
:10130000C87023E00120834908700B204870887062
:101310000320C8700020087118E001207D49087082
:101320000B20487088700420C870002008710DE000
:101330000BE0FFE70120774908700B2048708870A8
:101340000520C8700020087100E000BF00BF72488F
:10135000006801287CD171480068030000F07BFD23
:10136000060468BBF5F3F2D702206A490870002032
:10137000087170480078012806D10B2048700E20B3
:1013800088700F20C87052E06B48007801280CD19B
:101390006548006810210840002806D011205D49EA
:1013A00048700B208870C87041E06049C87889781F
:1013B00000060014084300280ADA0A20554948703C
:1013C0005A49C8788978000600140843444208E066
:1013D0000B20504948705549C87889780006041494
:1013E0000C4355480078012802D111204949487022
:1013F0002046FFF7CBFB04464C49C87889780006A5
:10140000001408436221C943884208DA2005000F0E
:10141000404988702006000F8030C87007E0200621
:10142000000F80303B4988702007000FC870AEE085
:1014300002203849087000200871404800780128CF
:1014400007D10B2048700E2088700F20C87041E033
:101450009EE03B48007801280BD1334800681021FA
:101460000840002805D10B202A49487088701120B7
:10147000C8702E49C87989790006001408430028ED
:1014800009DA0A20234948702849C8798979000671
:1014900004140C4308E00B201E4948702349C87906
:1014A0008979000604140C432046FFF76FFB0446BD
:1014B0001E49C87989790006001408436221C9438E
:1014C000884207DA2005000F124988702006000FB5
:1014D0008030C8705BE002200E490870002008715F
:1014E0001249C87A897A0006001408430446204647
:1014F000FFF74CFB04462005000F06494870200604
:10150000000F803088702007000FC8703FE03DE07A
:101510004A000020450000202C0000203000002060
:10152000240000202600002014000020500000208D
:10153000280000202500002027000020290000208E
:101540002B00002017E00BE0FFE702201149087094
:101550000B20487088700320C8700020087116E0C6
:1015600002200C4908700B20487088700420C87055
:10157000002008710BE00220064908700B2048701B
:1015800088700520C8700020087100E000BF00BF0F
:1015900010BD00004500002001280BD11549096845
:1015A000491C144A116011460968062921D30021FB
:1015B00011601EE002280CD10E490968002902D1F1
:1015C00006210C4A11600B490968491E094A11603D
:1015D0000FE003280DD10021064A11600649096871
:1015E000491C054A116011460968022901D30021EE
:1015F00011607047300000202C00002010B53948E1
:10160000006896286AD938480078012802D001205D
:1016100035490870354948780978000600140843B0
:101620009521C943884203DA28203149087055E0E2
:101630002E49487809780006001408439521C943CB
:1016400088420DDB294948780978000600140843D0
:101650004F21C943884203DC0020254908703DE042
:101660002249487809780006001408435030840065
:101670000A212046FEF774FD04461D490C700846F9
:1016800001781C480078401C814218D117494878DD
:10169000097800060014084350308100144800788F
:1016A0000A225043001D814204DA12480078104992
:1016B000087008E00E4800780E49087003E00C48F6
:1016C00000780C4908700A480078282806DD282090
:1016D000074908700846007806490870002001494B
:1016E000086010BD1C0000202300002050000020D6
:1016F000210000202200002010B50E480078962816
:1017000004DA0C480078401C0A490870FFF7E8FB2F
:10171000041E01D10749087006480078012808D145
:10172000002C03D02046FFF737FF02E000200149DC
:10173000087010BD34000020002905D0054A526908
:101740000243044B5A6104E0024A52698243014B4E
:101750005A61704700100240002905D0054A92697D
:101760000243044B9A6104E0024A92698243014BAE
:101770009A617047001002400348406A012109063F
:101780000843014948627047001002400146481171
:10179000012802D10A48006807E04811022802D156
:1017A0000748006A01E00648406ACB06DB0E0122CA
:1017B0009A401040002801D0012070470020FCE72B
:1017C000001002400349496A490849000143014A9F
:1017D000516270470010024000B500BF0220FFF7C1
:1017E000FBFA0128FAD000BD10B500F001F810BDD9
:1017F0001CB544480068012108434249086000BF05
:1018000040480068022108400028F9D03E483F497E
:1018100008603F480068102108433D4908600846B9
:101820000068C008C000086038490968481E394986
:10183000FEF780FC044636480068204334490860BF
:10184000304840682F4948600846406848602F4843
:1018500000683149884207D92A4840680121890235
:1018600008432849486006E026484068012189026B
:1018700008432449486023484068032109048843F9
:1018800020494860084600680003000B08606B466A
:1018900001AA1E4801682148FFF742F9194800686B
:1018A0000003000B1749086069460879800609782B
:1018B00009050843134909680843124908600846A6
:1018C00000680121090608430E49086000BF0D4861
:1018D00000680121490608400028F8D009484068FE
:1018E0008008800007494860084640680221084394
:1018F0000449486000BF034840680C21084008289C
:10190000F9D11CBD0010024000127A000000002036
:101910000020024000366E0100512502001BB70076
:1019200010B509480068401C07490860074800686E
:10193000401C0649086006480068401C04490860CD
:10194000FFF7EEFA10BD0000140000201800002080
:101950003800002010B516480068012108431449DA
:101960000860084640681349084011494860084625
:101970000068114908400E490860084600680121C6
:10198000890488430A49086008464068C32109045D
:1019900088430749486008460068084908400449E8
:1019A00008609F2000048860FFF71EFF10BD000044
:1019B000001002400CC0FFF8FFFFF6FEFFFF8F0093
:1019C000002904D0026880231A43026003E0026801
:1019D00080239A4302607047002904D002680123E3
:1019E0001A43026003E00268520852000260704726
:1019F000002905D0426C0123DB031A43426404E052
:101A0000426C0123DB039A434264704708B501210D
:101A10004804FFF791FE022208210920C006FFF7C3
:101A200094F902220921C806FFF78FF902220A2140
:101A30000920C006FFF789F902220B210920C00600
:101A4000FFF783F918216846C170012181700902EE
:101A5000018069460920C006FFF72AF901214902E1
:101A60006846018069460920C006FFF721F9012177
:101A700089026846018069460920C006FFF718F907
:101A80000121C9026846018069460920C006FFF7A6
:101A90000FF908BD00B587B00121C802FFF75CFE51
:101AA00001214902684601830021817401208002DE
:101AB000059068460182817604A91F4800F008F964
:101AC000FF2101316846418160210170002181813F
:101AD00008214172002101728170012141700020B2
:101AE00001906946144800F029F86946124800F050
:101AF00057F86946104800F08BF869460E4800F028
:101B0000BBF808210C4800F07BF808210A4800F0D7
:101B1000ADF80821084800F0D3F801210648FFF786
:101B20004FFF01210448FFF763FF01210248FFF73F
:101B300053FF07B000BD0000002C014010B58269C2
:101B400070239A430B781A4382610A7A4B781A43BE
:101B5000036A9B089B001A4302624A6842630D4A6B
:101B6000904205D00C4A904202D00C4A90420FD1CC
:101B70004A7A8B781A43036A0C24A3431A430262FD
:101B80004A898B891A434368A401A3431A434260DC
:101B900010BD0000002C01400044014000480140FD
:101BA00010B5826907231B039A430B781B021A4363
:101BB00082610A7A12014B781B011A43036A3024AE
:101BC000A3431A4302624A6882630C4A904213D1CB
:101BD0004A7A12018B781B011A43036AC024A3437B
:101BE0001A4302624A8992008B899B001A43436818
:101BF0002401A3431A43426010BD0000002C0140A1
:101C000082690123DB029A430B021A438261704707
:101C100010B5C26970239A430B781A43C2610A7ADD
:101C200012024B781B021A43036A03242402A343C3
:101C30001A4302624A68C2630B4A904213D14A7A3D
:101C400012028B781B021A43036AA400A3431A43AF
:101C500002624A8912018B891B011A434368A4005E
:101C6000A3431A43426010BD002C0140C2690823FF
:101C70009A430A43C261704710B5C26907231B0328
:101C80009A430B781B021A43C2610A7A12034B78FB
:101C90001B031A43036A03242403A3431A43026267
:101CA0004A680264054A904207D1426801239B03B7
:101CB0009A434B899B011A43426010BD002C01409E
:101CC000C2690123DB029A430B021A43C2617047C7
:101CD000026803231B029A430B891A430260134ACA
:101CE000904206D001229207904202D0104A9042C0
:101CF00005D1026870239A438B781A4302600B4A1D
:101D0000904205D00B4A904202D00B4A904205D136
:101D1000026B120A12028B7A1A4302634A68C26289
:101D20000A8882620122426170470000002C014053
:101D300000040040004401400048014010B5002468
:101D40000A2414E000200B490860601E0A4908704C
:101D500048708870C870087101E0FFF779F805488D
:101D60000068802108400028F7D0601EC4B2002C13
:101D7000E8DC10BD180000204000002070B50546CA
:101D8000002416E080202840002807D08020204131
:101D9000014601220848FEF7F9FF06E080202041B5
:101DA000014600220448FEF7F1FF6806050E601C9C
:101DB000C4B2082CE6DB70BD00040048042900DD35
:101DC0007047012906D002290DD0032914D0042917
:101DD00024D11AE0436B002B03D0124B9A4200D15E
:101DE000EEE742631BE0836B002B03D00D4B9A425E
:101DF00000D1E5E7826312E0C36B002B03D0094BEF
:101E00009A4200D1DCE7C26309E0036C002B03D0E7
:101E1000044B9A4200D1D3E7026400E000BF00BF48
:101E200000BFCDE7FFFF00002021020C01D01021F0
:101E30001046020A01D010460839020901D01046A6
:101E4000091F820801D01046891E420801D0881E51
:101E50007047081A704730B47446641E2578641CB5
:101E6000AB4204D3635D5B00E31830BC18471D46EA
:101E7000F8E7000010B5002819DB1A4A03231B02FB
:101E8000D21883089B00D2588307DC0EFF23A3409F
:101E90009A438B071B0E8407E40EA3401A43114B91
:101EA000032424021B198408A4001A5118E00E4AC6
:101EB00003071B0F083B9B089B00D2588307DC0ECF
:101EC000FF23A3409A438B071B0E8407E40EA34015
:101ED0001A43054B0407240F083CA408A4001A5118
:101EE00010BD000000E100E01CED00E0F8B5044684
:101EF0004F1EC8000838211815461E460868496854
:101F00003A4606239A4310D02A463346FEF77AF91A
:101F10003A46D200083AA3181A687F1E5B68FEF79B
:101F200093FB06223B469343EED1022F23D0042F8E
:101F300011D0062F2FD12A463346FEF763F9E36A04
:101F4000A26AFEF781FB2A463346FEF75BF9636A15
:101F5000226AFEF779FB2A463346FEF753F9E36916
:101F6000A269FEF771FB2A463346FEF74BF9636917
:101F70002269FEF769FB2A463346FEF743F9E36818
:101F8000A268FEF761FB2A463346FEF73BF9636819
:101F90002268FEF759FBF8BD002210B51346104623
:101FA0000149FEF797F910BD0000F03F10B501227E
:101FB000FEF7FCFB10BD002210B51346104611467B
:101FC000FEF788F910BD02E008C8121F08C1002AF8
:101FD000FAD170477047002001E001C1121F002AAA
:101FE000FBD1704701490860704700004C00002099
:101FF000F0B5C54A00248FB091420ADA4B005B0865
:10200000934206D801254A006D05EA4205D1002811
:1020100003D0FFF7CBFF0FB0F0BD01252D05A9427E
:1020200019DA034308D0002910DA0120FFF7DAFF9C
:10203000FFF7C1FF0FB0F0BD0220FFF7D3FFFFF79E
:10204000ABFF0122D20751400FB0F0BD3524E4436D
:102050003622FEF7ABFB0A15AC4B1219D4180A0353
:10206000120BAB49AB4B56182E4031465940114329
:102070000192321512190B920022FEF789FB019A88
:102080000446921C1003A44E000B0D467E44032808
:1020900060D2204673683268FEF7F4F91CD10B98C1
:1020A000002815D0FEF798FB04460E469B4A9C4B31
:1020B000FEF7A8F80D4607469A4A9B4B2046314644
:1020C000FEF7A0F83A462B46FEF7BEFA0FB0F0BD79
:1020D000716830680FB0F0BD944A954B2046294690
:1020E000FEF790F80022934BFEF758FB06460F468A
:1020F00022462B4610461946FEF784F832463B46E8
:10210000FEF780F806460B980F4600281DD0FEF714
:1021100063FB824A824B05910490FEF773F83246C6
:102120003B46FEF73BFB22462B46FEF731FB0446BF
:102130000D467C4A7C4B05990498FEF763F82246CD
:102140002B46FEF725FB0FB0F0BD0B46324620466E
:102150002946C4E0012300229B072046FEF774FABB
:1021600002460B4620462946FEF7B4F806460F46BF
:102170000B98FEF731FB32463B4605910490104622
:102180001946FEF73FF809910C906B490198099B9D
:10219000421800920C9A19461046FEF733F8024690
:1021A00007910A90654901980B1A6548019303212C
:1021B0007844079BFFF79AFE079B0A9AFEF722F8DE
:1021C0000E905F480D9104217844079B0A9AFFF70F
:1021D0008DFE099B0C9AFEF715F8019B009A1A4395
:1021E00000920D9B0E9AFEF72FFA009A01910C9027
:1021F000002A4DDD0022D24320462946FEF7D6FABA
:1022000022462B46FDF7FEFF00910A900B9800280E
:102210002BD0424A424B05990498FDF7F3FF0791F2
:102220000E90019B0C9A00990A98FEF70DFA32461F
:102230003B46FDF7E7FF079B0E9AFEF705FA009B6A
:102240000A9AFEF7ABFA22462B46FEF7A1FA04469D
:102250000D46344A344B05990498FDF7D3FF2246C6
:102260002B46FEF795FA0FB0F0BD019B0C9A0A9829
:10227000FEF7EAF932463B46FDF7C4FF009B0A9A97
:10228000FEF78CFA22462B46FEF788FA0FB0F0BD17
:102290000B98002827D0214A214B05990498FDF777
:1022A000B1FF0791009020462946019B0C9AFEF74A
:1022B0006FFA32463B46FDF7A5FF079B009AFEF7F3
:1022C00067FA22462B46FEF763FA04460D46154A86
:1022D000154B05990498FDF795FF22462B46FEF70E
:1022E00057FA0FB0F0BD0B46204629460C9AFEF770
:1022F0004FFA32463B46FDF785FF22462B46FEF756
:102300004DFA0FB0F0BD00000000F07F01FCFFFFB0
:10231000645F09000000F03FE0060000763C79357C
:10232000EF39EA3D0000E0FE422EE63F5555555597
:102330005555D53F0000E03F86EBF9FF51B8060048
:102340008405000000B585B0FEF792FEFEF780FC24
:10235000FEF7A0FDFEF74CFDFEF75AFBFEF7DCFE94
:10236000FFF7ECFC7BE1FEF773FD0720FEF7B2FB05
:102370000190FEF727F806460022B94BFDF742FF11
:102380000022B84B03910290FDF7A4FF0446FEF72C
:102390008DF804900498FEF761F80446B24AB34BF6
:1023A000FEF770F808D20120B1490870B148B2496F
:1023B0000870000A487016E00498FEF74FF80646C9
:1023C000FFF716FE0022AD4B03910290FDF71AFFB6
:1023D0000446FEF71FF800B2A7490870000A4870CB
:1023E0000020A3490870A449487809780006001421
:1023F0000843142803DD0120A149087002E00020F1
:102400009F4908700420FEF765FB0190FDF7DAFF95
:1024100006460022924BFDF7F5FE04460022914B42
:10242000FDF758FF03910290FEF740F804900498DE
:10243000FEF714F804468C4A8C4BFEF723F808D2BA
:102440000120904908708B488B490871000A487137
:1024500016E00498FEF702F80646FFF7C9FD0446A9
:102460000022864BFDF7CEFE03910290FDF7D2FFCE
:1024700000B281490871000A487100208149087042
:102480000520FEF727FB0190FDF79CFF0446002284
:10249000734BFDF7B7FE0022724B03910290FDF7DC
:1024A00019FF0646FEF702F8049077490498FDF7F5
:1024B0006BFE04900498FDF793FF00B26E4908721A
:1024C000000A48720620FEF705FB0190FDF77AFF2F
:1024D00006460022624BFDF795FE04460022614B42
:1024E000FDF7F8FE03910290FDF7E0FF04900498D9
:1024F000FDF7B4FF04465C4A5C4BFDF7C3FF08D20E
:102500000120624908705B495B488170090AC1700B
:1025100016E00498FDF7A2FF03910290FFF768FD13
:1025200004460022554BFDF76DFE0646FDF772FF8F
:1025300001B251488170090AC170002053490870E6
:102540004D49C8788978000600140843142803DD33
:1025500001204F49087002E000204D490870072013
:10256000FEF7B8FA0190FDF72DFF044600223C4B20
:10257000FDF748FE0022474B03910290FDF7AAFEAB
:102580000646FDF793FF04900498FDF767FF0446A5
:10259000354A364BFDF776FF08D201203E490870D8
:1025A000344935488171090AC17116E00498FDF774
:1025B00055FF03910290FFF71BFD064600222F4BAB
:1025C000FDF720FE0446FDF725FF00B22A49887179
:1025D000000AC8710020304908700820FEF77AFA16
:1025E0000190FDF7EFFE044600221D4BFDF70AFEA9
:1025F00006460022274BFDF76DFE03910290FDF782
:1026000055FF049020490498FDF7BEFD04900498FE
:10261000FDF7E6FE01B218488172090AC172FEF7A1
:10262000EDFF1E480078012809D11D480078800080
:102630001C490A5A01211C48FFF7C0FB06E0194853
:102640004030028A01211848FFF7B8FBFF20FEF74F
:1026500029FBFFF751F8FEF765FDFEF7D1FA82E698
:102660000000144000FEAF4076711B0DE02DA03F2E
:102670002400002019FCFFFF5000002000005940FA
:10268000260000202800002000007A4425000020B9
:10269000270000200000B040290000202300002077
:1026A00021000020AC260008002C0140B80B9A0441
:1026B000F803CE03B7039F038903720360034C033F
:1026C000360324030F03FC02EA02D802C602B40256
:1026D000A502940285027402680256024B023D0272
:1026E000320225021A02110208020002F501EC0171
:1026F000E401DE01D701CF01CA01C401BD01B80167
:10270000B201AD01A801A401A0019D0198019501AC
:1027100091018D018A01C0F9A4B0999282F880904C
:10272000BFFF8688C7A38C89C2A1C6C1ABCF838EE9
:10273000C887CC000000000004FA97999999D93F06
:10274000AF788E1DC571CC3F9FC678D0099AC33F24
:10275000935555555555E53F599322942449D23FF9
:10276000DE03CB966446C73F44523EDF12F1C23FC0
:102770000000000000000000982700080000002072
:1027800050000000C61F0008E82700085000002085
:1027900020040000D61F000800127A00000000008C
:1027A0000000000001020304060708090000000001
:1027B0000000000000000000000000000000000019
:1027C0000000000000000000000000000000000009
:1027D00000000000F0000000000000000000000009
:0827E0000000010000000000F0
:04000005080000C12E
:00000001FF
